:100000000C942A000C9434000C9434000C943400AA
:100010000C9434000C9434000C9434000C94340090
:100020000C9434000C9434000C9434000C94340080
:100030000C9434000C9434000C9434000C94340070
:100040000C9434000C9434000C9434000C94340060
:100050000C94340011241FBECFE5D8E0DEBFCDBF25
:100060000E94B0030C94D5030C940000DF93CF934F
:10007000CDB7DEB727970FB6F894DEBF0FBECDBF62
:1000800089836A834B838981843008F0EDC08A813B
:10009000883008F0E9C08B81882309F073C089811A
:1000A000282F30E03F832E838E819F818130910500
:1000B00059F12E813F81223031052CF48E819F81B0
:1000C000009769F05FC02E813F812230310589F1B0
:1000D0008E819F818330910509F440C053C0AAE30B
:1000E000B0E0EAE3F0E08081482F8A81282F30E0F9
:1000F00081E090E0022E02C0880F991F0A94E2F777
:10010000809584238C933EC0A7E3B0E0E7E3F0E062
:100110008081482F8A81282F30E081E090E0022EF4
:1001200002C0880F991F0A94E2F7809584238C936C
:1001300029C0A4E3B0E0E4E3F0E08081482F8A81A5
:10014000282F30E081E090E0022E02C0880F991F36
:100150000A94E2F7809584238C9314C0A1E3B0E065
:10016000E1E3F0E08081482F8A81282F30E081E0B0
:1001700090E0022E02C0880F991F0A94E2F7809542
:1001800084238C938B81813009F06EC08981282F64
:1001900030E03D832C838C819D818130910549F134
:1001A0002C813D81223031052CF48C819D8100977A
:1001B00061F05AC02C813D812230310571F18C8172
:1001C0009D8183309105E9F14FC0AAE3B0E0EAE3F5
:1001D000F0E08081482F8A81282F30E081E090E094
:1001E000022E02C0880F991F0A94E2F7842B8C9389
:1001F0003BC0A7E3B0E0E7E3F0E08081482F8A81CD
:10020000282F30E081E090E0022E02C0880F991F75
:100210000A94E2F7842B8C9327C0A4E3B0E0E4E3D4
:10022000F0E08081482F8A81282F30E081E090E043
:10023000022E02C0880F991F0A94E2F7842B8C9338
:1002400013C0A1E3B0E0E1E3F0E08081482F8A81B0
:10025000282F30E081E090E0022E02C0880F991F25
:100260000A94E2F7842B8C9327960FB6F894DEBF9E
:100270000FBECDBFCF91DF910895DF93CF93CDB760
:10028000DEB727970FB6F894DEBF0FBECDBF8983C8
:100290006A834B838B81882309F073C08981282F5F
:1002A00030E03F832E838E819F818130910559F10B
:1002B0002E813F81223031052CF48E819F81009761
:1002C00069F05FC02E813F812230310589F18E8136
:1002D0009F818330910509F440C053C0ABE3B0E087
:1002E000EBE3F0E08081482F8A81282F30E081E025
:1002F00090E0022E02C0880F991F0A94E2F78095C1
:1003000084238C933EC0A8E3B0E0E8E3F0E0808172
:10031000482F8A81282F30E081E090E0022E02C031
:10032000880F991F0A94E2F7809584238C9329C043
:10033000A5E3B0E0E5E3F0E08081482F8A81282F33
:1003400030E081E090E0022E02C0880F991F0A94ED
:10035000E2F7809584238C9314C0A2E3B0E0E2E33B
:10036000F0E08081482F8A81282F30E081E090E002
:10037000022E02C0880F991F0A94E2F78095842309
:100380008C938B81813009F06EC08981282F30E0F9
:100390003D832C838C819D818130910549F12C8195
:1003A0003D81223031052CF48C819D81009761F0D4
:1003B0005AC02C813D812230310571F18C819D81A3
:1003C00083309105E9F14FC0ABE3B0E0EBE3F0E03F
:1003D0008081482F8A81282F30E081E090E0022E32
:1003E00002C0880F991F0A94E2F7842B8C933BC0BC
:1003F000A8E3B0E0E8E3F0E08081482F8A81282F6D
:1004000030E081E090E0022E02C0880F991F0A942C
:10041000E2F7842B8C9327C0A5E3B0E0E5E3F0E09E
:100420008081482F8A81282F30E081E090E0022EE1
:1004300002C0880F991F0A94E2F7842B8C9313C093
:10044000A2E3B0E0E2E3F0E08081482F8A81282F28
:1004500030E081E090E0022E02C0880F991F0A94DC
:10046000E2F7842B8C9327960FB6F894DEBF0FBE6D
:10047000CDBFCF91DF910895DF93CF9300D000D00F
:100480000F92CDB7DEB78A836B838A81282F30E045
:100490003D832C834C815D814130510541F18C813C
:1004A0009D818230910534F42C813D8121153105E7
:1004B00061F052C04C815D814230510551F18C8117
:1004C0009D8183309105B9F147C0E9E3F0E0808177
:1004D000282F30E08B81882F90E0A90102C055952C
:1004E00047958A95E2F7CA018170898335C0E6E3B2
:1004F000F0E08081282F30E08B81882F90E0A901E7
:1005000002C0559547958A95E2F7CA0181708983A3
:1005100023C0E3E3F0E08081282F30E08B81882F37
:1005200090E0A90102C0559547958A95E2F7CA0166
:100530008170898311C0E0E3F0E08081282F30E0F2
:100540008B81882F90E0A90102C0559547958A9527
:10055000E2F7CA018170898389810F900F900F9013
:100560000F900F90CF91DF910895DF93CF93CDB788
:10057000DEB782E062E041E00E943600CF91DF9179
:100580000895DF93CF93CDB7DEB782E067E041E017
:100590000E943600CF91DF910895DF93CF93CDB7BE
:1005A000DEB783E063E041E00E943600CF91DF9147
:1005B0000895DF93CF9300D00F92CDB7DEB7898334
:1005C0008981282F30E03B832A838A819B81813077
:1005D000910579F02A813B812230310581F08A81B1
:1005E0009B81009789F482E062E041E00E943D0136
:1005F0000BC082E067E041E00E943D0105C083E05E
:1006000063E041E00E943D010F900F900F90CF9169
:10061000DF910895DF93CF9300D00F92CDB7DEB76F
:1006200089838981282F30E03B832A838A819B81BB
:100630008130910579F02A813B812230310581F0AA
:100640008A819B81009789F482E062E040E00E9409
:100650003D010BC082E067E040E00E943D0105C023
:1006600083E063E040E00E943D010F900F900F9007
:10067000CF91DF910895DF93CF93CDB7DEB7AAE294
:10068000B0E0EAE2F0E0808188608C93AAE2B0E01A
:10069000EAE2F0E0808180618C93A0E4B0E0E0E4E5
:1006A000F0E080818F7B8C93A0E4B0E0E0E4F0E0A8
:1006B00080818F7E8C93A0E4B0E0E0E4F0E0808164
:1006C0008F7D8C93A0E4B0E0E0E4F0E08081877F50
:1006D0008C93A0E4B0E0E0E4F0E0808182608C9351
:1006E000A0E4B0E0E0E4F0E0808184608C93AAE2D2
:1006F000B0E0EAE2F0E080818B7F8C93E0E4F0E010
:100700001082E9E2F0E087E68083CF91DF910895DF
:10071000DF93CF9300D0CDB7DEB78983EBE2F0E073
:100720008081ABE2B0E0EBE2F0E080818F7B8C93E4
:10073000ECE2F0E0898180830F900F90CF91DF9100
:100740000895DF93CF930F92CDB7DEB7EBE2F0E0E1
:100750008081ECE2F0E080810F90CF91DF910895ED
:10076000DF93CF9300D000D00F92CDB7DEB79B833D
:100770008A837D836C8319820E943B030E94B502A9
:1007800083E066E041E00E9436000E94A103898375
:100790008981813619F480E00E94D90289818236EC
:0E07A000A1F780E00E940A03F0CFF894FFCF8B
:00000001FF
