:100000000C942A000C9434000C9434000C943400AA
:100010000C9434000C9434000C9434000C94340090
:100020000C9434000C9434000C9434000C94340080
:100030000C9434000C9434000C9434000C94340070
:100040000C9434000C9434000C9434000C94340060
:100050000C94340011241FBECFE5D8E0DEBFCDBF25
:100060000E9436000C9435010C940000DF93CF936E
:1000700000D000D00F92CDB7DEB7A4E3B0E0E4E348
:10008000F0E0808180688C93A4E3B0E0E4E3F0E0EA
:10009000808184608C93A1E3B0E0E1E3F0E08081B3
:1000A00088608C93A1E3B0E0E1E3F0E080818F7B96
:1000B0008C93A1E3B0E0E1E3F0E080818B7F8C934F
:1000C0001982E0E3F0E0808186958695882F90E0A4
:1000D00081709070882309F45BC01C82898187300D
:1000E00010F481E08C8389818F5F89838C818823E0
:1000F00009F44EC041C08981882F90E081709070D2
:10010000882341F0A5E3B0E0E5E3F0E0808184607E
:100110008C9307C0A5E3B0E0E5E3F0E080818B7F3E
:100120008C9389818695882F90E0817090708823C8
:1001300041F0A5E3B0E0E5E3F0E0808180688C93D6
:1001400003C0E5E3F0E08081898186958695882F5C
:1001500090E081709070882341F0A2E3B0E0E2E388
:10016000F0E0808188608C9307C0A2E3B0E0E2E316
:10017000F0E08081877F8C93E0E3F0E080818695DA
:100180008695882F90E081709070882309F0B3CF16
:10019000E0E3F0E080818295869586958370882FD4
:1001A00090E081709070882309F48BCF89818D83D2
:1001B0008D81882311F081E08D838D81998191500B
:1001C0009983882309F47DCF41C08981882F90E0ED
:1001D00081709070882341F0A5E3B0E0E5E3F0E0A2
:1001E000808184608C9307C0A5E3B0E0E5E3F0E094
:1001F00080818B7F8C9389818695882F90E0817098
:100200009070882341F0A5E3B0E0E5E3F0E0808161
:1002100080688C9303C0E5E3F0E080818981869556
:100220008695882F90E081709070882341F0A2E33A
:10023000B0E0E2E3F0E0808188608C9307C0A2E345
:10024000B0E0E2E3F0E08081877F8C93E0E3F0E0D0
:1002500080818295869586958370882F90E0817045
:0E0260009070882309F0B1CF2CCFF894FFCF17
:00000001FF
