:100000000C942A000C943C000C943C000C943C0092
:100010000C943C000C943C000C943C000C943C0070
:100020000C943C000C943C000C943C000C94810318
:100030000C943C000C943C000C943C000C943C0050
:100040000C943C000C943C000C943C000C943C0040
:100050000C943C0011241FBECFE5D8E0DEBFCDBF1D
:1000600010E0A0E6B0E001C01D92A236B107E1F7B2
:100070000E94C0030C94C7030C940000DF93CF933D
:10008000CDB7DEB727970FB6F894DEBF0FBECDBF52
:1000900089836A834B838981843008F0EDC08A812B
:1000A000883008F0E9C08B81882309F073C089810A
:1000B000282F30E03F832E838E819F8181309105F0
:1000C00059F12E813F81223031052CF48E819F81A0
:1000D000009769F05FC02E813F812230310589F1A0
:1000E0008E819F818330910509F440C053C0AAE3FB
:1000F000B0E0EAE3F0E08081482F8A81282F30E0E9
:1001000081E090E0022E02C0880F991F0A94E2F766
:10011000809584238C933EC0A7E3B0E0E7E3F0E052
:100120008081482F8A81282F30E081E090E0022EE4
:1001300002C0880F991F0A94E2F7809584238C935C
:1001400029C0A4E3B0E0E4E3F0E08081482F8A8195
:10015000282F30E081E090E0022E02C0880F991F26
:100160000A94E2F7809584238C9314C0A1E3B0E055
:10017000E1E3F0E08081482F8A81282F30E081E0A0
:1001800090E0022E02C0880F991F0A94E2F7809532
:1001900084238C938B81813009F06EC08981282F54
:1001A00030E03D832C838C819D818130910549F124
:1001B0002C813D81223031052CF48C819D8100976A
:1001C00061F05AC02C813D812230310571F18C8162
:1001D0009D8183309105E9F14FC0AAE3B0E0EAE3E5
:1001E000F0E08081482F8A81282F30E081E090E084
:1001F000022E02C0880F991F0A94E2F7842B8C9379
:100200003BC0A7E3B0E0E7E3F0E08081482F8A81BC
:10021000282F30E081E090E0022E02C0880F991F65
:100220000A94E2F7842B8C9327C0A4E3B0E0E4E3C4
:10023000F0E08081482F8A81282F30E081E090E033
:10024000022E02C0880F991F0A94E2F7842B8C9328
:1002500013C0A1E3B0E0E1E3F0E08081482F8A81A0
:10026000282F30E081E090E0022E02C0880F991F15
:100270000A94E2F7842B8C9327960FB6F894DEBF8E
:100280000FBECDBFCF91DF910895DF93CF93CDB750
:10029000DEB727970FB6F894DEBF0FBECDBF8983B8
:1002A0006A834B838B81882309F073C08981282F4F
:1002B00030E03F832E838E819F818130910559F1FB
:1002C0002E813F81223031052CF48E819F81009751
:1002D00069F05FC02E813F812230310589F18E8126
:1002E0009F818330910509F440C053C0ABE3B0E077
:1002F000EBE3F0E08081482F8A81282F30E081E015
:1003000090E0022E02C0880F991F0A94E2F78095B0
:1003100084238C933EC0A8E3B0E0E8E3F0E0808162
:10032000482F8A81282F30E081E090E0022E02C021
:10033000880F991F0A94E2F7809584238C9329C033
:10034000A5E3B0E0E5E3F0E08081482F8A81282F23
:1003500030E081E090E0022E02C0880F991F0A94DD
:10036000E2F7809584238C9314C0A2E3B0E0E2E32B
:10037000F0E08081482F8A81282F30E081E090E0F2
:10038000022E02C0880F991F0A94E2F780958423F9
:100390008C938B81813009F06EC08981282F30E0E9
:1003A0003D832C838C819D818130910549F12C8185
:1003B0003D81223031052CF48C819D81009761F0C4
:1003C0005AC02C813D812230310571F18C819D8193
:1003D00083309105E9F14FC0ABE3B0E0EBE3F0E02F
:1003E0008081482F8A81282F30E081E090E0022E22
:1003F00002C0880F991F0A94E2F7842B8C933BC0AC
:10040000A8E3B0E0E8E3F0E08081482F8A81282F5C
:1004100030E081E090E0022E02C0880F991F0A941C
:10042000E2F7842B8C9327C0A5E3B0E0E5E3F0E08E
:100430008081482F8A81282F30E081E090E0022ED1
:1004400002C0880F991F0A94E2F7842B8C9313C083
:10045000A2E3B0E0E2E3F0E08081482F8A81282F18
:1004600030E081E090E0022E02C0880F991F0A94CC
:10047000E2F7842B8C9327960FB6F894DEBF0FBE5D
:10048000CDBFCF91DF910895DF93CF9300D000D0FF
:100490000F92CDB7DEB78A836B838A81282F30E035
:1004A0003D832C834C815D814130510541F18C812C
:1004B0009D818230910534F42C813D8121153105D7
:1004C00061F052C04C815D814230510551F18C8107
:1004D0009D8183309105B9F147C0E9E3F0E0808167
:1004E000282F30E08B81882F90E0A90102C055951C
:1004F00047958A95E2F7CA018170898335C0E6E3A2
:10050000F0E08081282F30E08B81882F90E0A901D6
:1005100002C0559547958A95E2F7CA018170898393
:1005200023C0E3E3F0E08081282F30E08B81882F27
:1005300090E0A90102C0559547958A95E2F7CA0156
:100540008170898311C0E0E3F0E08081282F30E0E2
:100550008B81882F90E0A90102C0559547958A9517
:10056000E2F7CA018170898389810F900F900F9003
:100570000F900F90CF91DF910895DF93CF93CDB778
:10058000DEB782E062E041E00E943E00CF91DF9161
:100590000895DF93CF93CDB7DEB782E067E041E007
:1005A0000E943E00CF91DF910895DF93CF93CDB7A6
:1005B000DEB783E063E041E00E943E00CF91DF912F
:1005C0000895DF93CF9300D00F92CDB7DEB7898324
:1005D0008981282F30E03B832A838A819B81813067
:1005E000910579F02A813B812230310581F08A81A1
:1005F0009B81009789F482E062E041E00E9445011E
:100600000BC082E067E041E00E94450105C083E045
:1006100063E041E00E9445010F900F900F90CF9151
:10062000DF910895DF93CF9300D00F92CDB7DEB75F
:1006300089838981282F30E03B832A838A819B81AB
:100640008130910579F02A813B812230310581F09A
:100650008A819B81009789F482E062E040E00E94F9
:1006600045010BC082E067E040E00E94450105C003
:1006700083E063E040E00E9445010F900F900F90EF
:10068000CF91DF910895DF93CF93CDB7DEB7AFE57C
:10069000B0E0EFE5F0E0808180688C93A3E5B0E006
:1006A000E3E5F0E08081877F8C93A3E5B0E0E3E5AC
:1006B000F0E080818F7B8C93A3E5B0E0E3E5F0E090
:1006C000808181608C93A3E5B0E0E3E5F0E0808178
:1006D00082608C93A3E5B0E0E3E5F0E080818B7F5E
:1006E0008C93E2E5F0E080E78083A9E5B0E0E9E5FE
:1006F000F0E0808181608C930E94D502CF91DF91E0
:1007000008951F920F920FB60F9211242F938F937B
:100710009F93AF93BF93EF93FF93DF93CF93CDB7A7
:10072000DEB7809160009091610001969093610026
:1007300080936000809160009091610023E0813D92
:10074000920781F41092610010926000A2E3B0E081
:10075000E2E3F0E0908188E089278C93E2E5F0E025
:1007600080E78083CF91DF91FF91EF91BF91AF91AF
:100770009F918F912F910F900FBE0F901F90189502
:10078000DF93CF93CDB7DEB70E944303FFCFF8943A
:02079000FFCF99
:00000001FF
