:100000000C942A000C943F000C943F000C943F0089
:100010000C943F000C943F000C943F000C943F0064
:100020000C943F000C943F000C943F000C943F0054
:100030000C943F000C943F000C943F000C943F0044
:100040000C943F000C943F000C943F000C943F0034
:100050000C943F0011241FBECFE5D8E0DEBFCDBF1A
:1000600010E0A0E6B0E0E4EBFFE102C005900D92E5
:10007000AE36B107D9F70E94750E0C94D80F0C94C8
:100080000000EF92FF920F931F937B018C0120E001
:1000900030E040E05FE40E94ED0388238CF0C8016B
:1000A000B70120E030E040E05FE40E94B9010E9427
:1000B0004D049B01AC01205030404040504806C0E8
:1000C000C801B7010E944D049B01AC01B901CA01EE
:1000D0001F910F91FF90EF900895A0E0B0E0E3E74B
:1000E000F0E00C94A10FDC012B01FA019C919230FD
:1000F00008F439C1EB018881823008F433C19430AF
:1001000069F4843009F02FC111969C91119789816F
:10011000981709F428C1A6E6B0E025C1843009F497
:1001200021C18230A9F4923009F01DC19A01AD01BC
:1001300088E0EA010990AE01E90109929E0181502F
:10014000C1F7E201898111969C918923818308C1BD
:10015000923009F407C112962D903C901397EB0151
:100160008A819B811496AD90BD90CD90DC901797BD
:10017000EC80FD800E811F819101281B390BB90194
:1001800037FF04C066277727621B730B6032710547
:100190000CF061C0121613066CF537014801062EEB
:1001A00004C096948794779467940A94D2F721E0D8
:1001B00030E040E050E004C0220F331F441F551FC1
:1001C0006A95D2F721503040404050402E213F21C7
:1001D00040235123211531054105510521F021E02E
:1001E00030E040E050E079018A01E628F72808294C
:1001F00019293CC0232BD1F1260E371E35014601AB
:10020000062E04C096948794779467940A94D2F744
:1002100021E030E040E050E004C0220F331F441FD3
:10022000551F6A95D2F721503040404050402A2156
:100230003B214C215D21211531054105510521F05E
:1002400021E030E040E050E059016A01A628B728DB
:10025000C828D9280BC0821593052CF01C01AA24AC
:10026000BB24650103C0EE24FF24870111969C91F5
:10027000D20111968C91981709F445C0992339F051
:10028000A80197012A193B094C095D0906C0A6017E
:1002900095012E193F09400B510B57FD08C01182E3
:1002A0003382228224833583468357831DC081E0B5
:1002B00081833382228288279927DC01821B930B5A
:1002C000A40BB50B84839583A683B7830DC0220F3F
:1002D000331F441F551F24833583468357838281F0
:1002E000938101979383828324813581468157814D
:1002F000DA01C9010197A109B1098F5F9F4FAF4F83
:10030000BF4328F30BC0918333822282EA0CFB1C8B
:100310000C1D1D1DE482F5820683178383E0808314
:10032000248135814681578157FF1AC0C901AA2708
:1003300097FDA095BA2F81709070A070B0705695FF
:10034000479537952795822B932BA42BB52B848328
:100350009583A683B7838281938101969383828359
:10036000DF0101C0D201CD01CDB7DEB7E2E10C94CF
:10037000BD0FA0E2B0E0EFEBF1E00C94AD0F6983AC
:100380007A838B839C832D833E834F835887E9E058
:10039000EE2EF12CEC0EFD1ECE010196B7010E944F
:1003A00076058E010F5E1F4FCE010596B8010E94A3
:1003B00076058A8991E089278A8BC701B801AE0149
:1003C000475E5F4F0E946D000E94A104A096E6E088
:1003D0000C94C90FA0E2B0E0E0EFF1E00C94AD0F97
:1003E00069837A838B839C832D833E834F835887D5
:1003F000F9E0EF2EF12CEC0EFD1ECE010196B701B7
:100400000E9476058E010F5E1F4FCE010596B80142
:100410000E947605C701B801AE01475E5F4F0E949A
:100420006D000E94A104A096E6E00C94C90FA0E222
:10043000B0E0EDE1F2E00C94A10F69837A838B8345
:100440009C832D833E834F835887CE010196BE0146
:10045000675F7F4F0E947605CE010596BE016F5EF5
:100460007F4F0E9476059985923088F08989823085
:10047000C8F0943019F4823051F404C0843029F467
:10048000923081F486E690E0C6C0923049F420E0D4
:100490009A858A89981321E02A87CE010996BBC0E4
:1004A000823049F420E09A858A89981321E02A8BCA
:1004B000CE014196B0C02D843E844F8458886D880B
:1004C0007E888F88988CEE24FF248701AA24BB2481
:1004D000650140E050E060E070E0E0E0F0E0C10184
:1004E00081709070892BE9F0E60CF71C081D191D2E
:1004F0009A01AB012A0D3B1D4C1D5D1D80E090E073
:10050000A0E0B0E0E614F7040805190520F481E046
:1005100090E0A0E0B0E0BA01A901480F591F6A1F9E
:100520007B1FAA0CBB1CCC1CDD1C97FE08C081E005
:1005300090E0A0E0B0E0A82AB92ACA2ADB2A3196C6
:10054000E032F10549F0660C771C881C991C569422
:10055000479437942794C3CFFA85EA892B893C893D
:100560008B859C85280F391F2E5F3F4F17C0CA010E
:1005700081709070892B61F016950795F794E79438
:1005800080E090E0A0E0B0E8E82AF92A0A2B1B2BD3
:1005900076956795579547952F5F3F4F77FDE7CF46
:1005A0000CC0440F551F661F771F17FD4160EE0CEE
:1005B000FF1C001F111F21503040403090E05907B0
:1005C00090E0690790E4790760F32B8F3C8FDB01A3
:1005D000CA018F779070A070B07080349105A1052A
:1005E000B10561F447FD0AC0E114F10401051105EC
:1005F00029F0405C5F4F6F4F7F4F40781A8EFE1797
:1006000011F081E08A8F4D8F5E8F6F8F78A383E02A
:10061000898FCE0149960E94A104A096E2E10C9434
:10062000BD0FA8E1B0E0E7E1F3E00C94A90F698306
:100630007A838B839C832D833E834F835887B9E0D5
:10064000EB2EF12CEC0EFD1ECE010196B7010E949F
:1006500076058E010F5E1F4FCE010596B8010E94F0
:1006600076052985223008F47EC03989323010F4AD
:10067000B8017CC08A859A8989278A87243011F03D
:10068000223031F4231709F06EC066E670E06EC0C8
:10069000343039F41D861E861F86188A1C861B86F8
:1006A00004C0323021F484E08987B7015FC02B8514
:1006B0003C858B899C89281B390B3C872B87ED84D3
:1006C000FE840F851889AD88BE88CF88D88CEA143F
:1006D000FB040C051D0540F4EE0CFF1C001F111F50
:1006E000215030403C872B8720E030E040E050E054
:1006F00080E090E0A0E0B0E460E070E0EA14FB0489
:100700000C051D0540F0282B392B4A2B5B2BEA18D2
:10071000FB080C091D09B695A79597958795EE0CD2
:10072000FF1C001F111F6F5F7F4F6F31710531F785
:10073000DA01C9018F779070A070B0708034910594
:10074000A105B10561F427FD0AC0E114F10401051A
:10075000110529F0205C3F4F4F4F5F4F20782D87C8
:100760003E874F87588BBE01675F7F4FCB010E944A
:10077000A1046896EAE00C94C50FA8E1B0E0E3ECB0
:10078000F3E00C94AD0F69837A838B839C832D8374
:100790003E834F83588789E0E82EF12CEC0EFD1E36
:1007A000CE010196B7010E9476058E010F5E1F4FA4
:1007B000CE010596B8010E9476058985823040F009
:1007C0008989823028F0C701B8010E94EE0501C076
:1007D0008FEF6896E6E00C94C90FA8E1B0E0E3EF74
:1007E000F3E00C94AD0F69837A838B839C832D8314
:1007F0003E834F83588789E0E82EF12CEC0EFD1ED6
:10080000CE010196B7010E9476058E010F5E1F4F43
:10081000CE010596B8010E9476058985823040F0A8
:100820008989823028F0C701B8010E94EE0501C015
:100830008FEF6896E6E00C94C90FA8E1B0E0E3E220
:10084000F4E00C94AD0F69837A838B839C832D83B2
:100850003E834F83588789E0E82EF12CEC0EFD1E75
:10086000CE010196B7010E9476058E010F5E1F4FE3
:10087000CE010596B8010E9476058985823040F048
:100880008989823028F0C701B8010E94EE0501C0B5
:1008900081E06896E6E00C94C90FACE0B0E0E3E5D7
:1008A000F4E00C94B10F69837A838B839C83CE012F
:1008B0000196BE016B5F7F4F0E9476058D8182306D
:1008C00061F1823050F1843021F48E81882351F11E
:1008D0002EC02F81388537FD20C06E812F31310524
:1008E0001CF06623F9F023C08EE190E0821B930B8D
:1008F00029853A854B855C8504C056954795379583
:1009000027958A95D2F76623B1F05095409530959A
:1009100021953F4F4F4F5F4F0EC020E030E040E049
:1009200050E009C02FEF3FEF4FEF5FE704C020E03A
:1009300030E040E050E8B901CA012C96E2E00C94A6
:10094000CD0FDF92EF92FF920F931F93FC01E48093
:10095000F58006811781D1808081823048F480E063
:1009600090E0A0E1B0E0E82AF92A0A2B1B2BA5C0F1
:10097000843009F49FC0823021F4EE24FF248701E3
:1009800005C0E114F1040105110519F4E0E0F0E0FF
:1009900096C0628173819FEF623879070CF05BC06B
:1009A00022E83FEF261B370B2A3131052CF020E0DF
:1009B00030E040E050E02AC0B801A701022E04C098
:1009C00076956795579547950A94D2F781E090E020
:1009D000A0E0B0E004C0880F991FAA1FBB1F2A9592
:1009E000D2F70197A109B1098E219F21A023B1233C
:1009F0000097A105B10521F081E090E0A0E0B0E012
:100A00009A01AB01282B392B4A2B5B2BDA01C90148
:100A10008F779070A070B07080349105A105B105FA
:100A200039F427FF09C0205C3F4F4F4F5F4F04C090
:100A3000215C3F4F4F4F5F4FE0E0F0E02030A0E0FF
:100A40003A07A0E04A07A0E45A0710F0E1E0F0E01E
:100A500079018A0127C06038710564F5FB01E1580E
:100A6000FF4FD801C7018F779070A070B0708034AD
:100A70009105A105B10539F4E7FE0DC080E490E0D1
:100A8000A0E0B0E004C08FE390E0A0E0B0E0E80EAA
:100A9000F91E0A1F1B1F17FF05C016950795F7942F
:100AA000E794319687E016950795F794E7948A9531
:100AB000D1F705C0EE24FF248701EFEFF0E06E2FA1
:100AC000679566276795902F9F77D794DD24D794F5
:100AD0008E2F8695492F462B582F5D29B701CA01C5
:100AE0001F910F91FF90EF90DF900895FC01DB01C3
:100AF000408151812281622F6F7770E0221F22276F
:100B0000221F9381892F880F822B282F30E0991F75
:100B10009927991F11969C93119721153105A9F5D5
:100B2000411551056105710511F482E037C082E875
:100B30009FEF13969C938E9312979A01AB0167E0F7
:100B4000220F331F441F551F6A95D1F783E08C9302
:100B50000DC0220F331F441F551F12968D919C917B
:100B60001397019713969C938E931297203080E0F1
:100B7000380780E0480780E4580758F314962D930F
:100B80003D934D935C93179708952F3F310579F46A
:100B9000411551056105710519F484E08C930895A0
:100BA00064FF03C081E08C9312C01C9210C02F57C9
:100BB000304013963C932E93129783E08C9387E0FA
:100BC000440F551F661F771F8A95D1F770641496DE
:100BD0004D935D936D937C93179708951F93DC015C
:100BE000FB019C91923008F447C08081823008F468
:100BF00043C0943051F411961C91843099F5818151
:100C0000682F70E0611B71093FC0843021F0923081
:100C100031F48230B9F18181882389F12DC0119698
:100C20001C9111978230F1F081811817D9F4129636
:100C30002D913C911397828193818217930794F0B1
:100C400028173907BCF014968D919D910D90BC9199
:100C5000A02D2481358146815781281739074A07FD
:100C60005B0718F4112341F00AC082179307A40709
:100C7000B50740F4112319F061E070E005C06FEF93
:100C80007FEF02C060E070E0CB011F910895DF9319
:100C9000CF93CDB7DEB727970FB6F894DEBF0FBE60
:100CA000CDBF89836A834B838981843008F0EDC08E
:100CB0008A81883008F0E9C08B81882309F073C0ED
:100CC0008981282F30E03F832E838E819F81813060
:100CD000910559F12E813F81223031052CF48E810E
:100CE0009F81009769F05FC02E813F8122303105DE
:100CF00089F18E819F818330910509F440C053C0F2
:100D0000AAE3B0E0EAE3F0E08081482F8A81282F4F
:100D100030E081E090E0022E02C0880F991F0A9413
:100D2000E2F7809584238C933EC0A7E3B0E0E7E32D
:100D3000F0E08081482F8A81282F30E081E090E028
:100D4000022E02C0880F991F0A94E2F7809584232F
:100D50008C9329C0A4E3B0E0E4E3F0E08081482F65
:100D60008A81282F30E081E090E0022E02C0880FB7
:100D7000991F0A94E2F7809584238C9314C0A1E311
:100D8000B0E0E1E3F0E08081482F8A81282F30E055
:100D900081E090E0022E02C0880F991F0A94E2F7CA
:100DA000809584238C938B81813009F06EC089817A
:100DB000282F30E03D832C838C819D8181309105EB
:100DC00049F12C813D81223031052CF48C819D81AB
:100DD000009761F05AC02C813D812230310571F1BC
:100DE0008C819D8183309105E9F14FC0AAE3B0E089
:100DF000EAE3F0E08081482F8A81282F30E081E00B
:100E000090E0022E02C0880F991F0A94E2F7842B0B
:100E10008C933BC0A7E3B0E0E7E3F0E08081482F8C
:100E20008A81282F30E081E090E0022E02C0880FF6
:100E3000991F0A94E2F7842B8C9327C0A4E3B0E0B7
:100E4000E4E3F0E08081482F8A81282F30E081E0C0
:100E500090E0022E02C0880F991F0A94E2F7842BBB
:100E60008C9313C0A1E3B0E0E1E3F0E08081482F70
:100E70008A81282F30E081E090E0022E02C0880FA6
:100E8000991F0A94E2F7842B8C9327960FB6F89457
:100E9000DEBF0FBECDBFCF91DF910895DF93CF931B
:100EA000CDB7DEB727970FB6F894DEBF0FBECDBF24
:100EB00089836A834B838B81882309F073C089817E
:100EC000282F30E03F832E838E819F8181309105D2
:100ED00059F12E813F81223031052CF48E819F8182
:100EE000009769F05FC02E813F812230310589F182
:100EF0008E819F818330910509F440C053C0ABE3DC
:100F0000B0E0EBE3F0E08081482F8A81282F30E0C9
:100F100081E090E0022E02C0880F991F0A94E2F748
:100F2000809584238C933EC0A8E3B0E0E8E3F0E032
:100F30008081482F8A81282F30E081E090E0022EC6
:100F400002C0880F991F0A94E2F7809584238C933E
:100F500029C0A5E3B0E0E5E3F0E08081482F8A8175
:100F6000282F30E081E090E0022E02C0880F991F08
:100F70000A94E2F7809584238C9314C0A2E3B0E036
:100F8000E2E3F0E08081482F8A81282F30E081E081
:100F900090E0022E02C0880F991F0A94E2F7809514
:100FA00084238C938B81813009F06EC08981282F36
:100FB00030E03D832C838C819D818130910549F106
:100FC0002C813D81223031052CF48C819D8100974C
:100FD00061F05AC02C813D812230310571F18C8144
:100FE0009D8183309105E9F14FC0ABE3B0E0EBE3C5
:100FF000F0E08081482F8A81282F30E081E090E066
:10100000022E02C0880F991F0A94E2F7842B8C935A
:101010003BC0A8E3B0E0E8E3F0E08081482F8A819C
:10102000282F30E081E090E0022E02C0880F991F47
:101030000A94E2F7842B8C9327C0A5E3B0E0E5E3A4
:10104000F0E08081482F8A81282F30E081E090E015
:10105000022E02C0880F991F0A94E2F7842B8C930A
:1010600013C0A2E3B0E0E2E3F0E08081482F8A8180
:10107000282F30E081E090E0022E02C0880F991FF7
:101080000A94E2F7842B8C9327960FB6F894DEBF70
:101090000FBECDBFCF91DF910895DF93CF9300D0E6
:1010A00000D00F92CDB7DEB78A836B838A81282F59
:1010B00030E03D832C834C815D814130510541F10D
:1010C0008C819D818230910534F42C813D812115E4
:1010D000310561F052C04C815D814230510551F1C2
:1010E0008C819D8183309105B9F147C0E9E3F0E03F
:1010F0008081282F30E08B81882F90E0A90102C0E9
:10110000559547958A95E2F7CA018170898335C064
:10111000E6E3F0E08081282F30E08B81882F90E09B
:10112000A90102C0559547958A95E2F7CA018170D9
:10113000898323C0E3E3F0E08081282F30E08B81B6
:10114000882F90E0A90102C0559547958A95E2F74E
:10115000CA018170898311C0E0E3F0E08081282F0B
:1011600030E08B81882F90E0A90102C0559547950A
:101170008A95E2F7CA018170898389810F900F9067
:101180000F900F900F90CF91DF9108950F931F93C1
:10119000DF93CF93CDB7DEB7CC54D0400FB6F894E1
:1011A000DEBF0FBECDBF81E061E041E00E94470697
:1011B00081E062E041E00E94470681E063E041E0B7
:1011C0000E94470680E064E041E00E94470680E01C
:1011D00065E041E00E94470680E066E041E00E9451
:1011E000470680E067E041E00E944706FE01E75BBA
:1011F000FF4F80E090E0A0E2B2E480839183A2837D
:10120000B3838E010B5B1F4FFE01E75BFF4F6081D5
:1012100071818281938120E030E04AE755E40E94A9
:101220001702DC01CB01F80180839183A283B38391
:10123000FE01EB5BFF4F608171818281938120E031
:1012400030E040E85FE30E941D04882344F4FE017F
:10125000ED5BFF4F81E090E09183808364C0FE01ED
:10126000EB5BFF4F608171818281938120E03FEFD2
:101270004FE757E40E94BD0318160CF043C0FE016F
:10128000E75BFF4F608171818281938120E030E0D4
:1012900040E251E40E941702DC01CB018E010D5B9C
:1012A0001F4FBC01CD010E944100DC01CB01F801C0
:1012B000918380831FC0FE01EF5BFF4F80E991E0C7
:1012C00091838083FE01EF5BFF4F808191810197C5
:1012D000F1F7FE01EF5BFF4F91838083DE01AD5B91
:1012E000BF4FFE01ED5BFF4F808191810197119609
:1012F0009C938E93FE01ED5BFF4F8081918100975F
:10130000D1F624C08E010D5B1F4FFE01EB5BFF4F3A
:1013100060817181828193810E944100DC01CB0157
:10132000F80191838083FE01ED5BFF4F8081918105
:10133000FE01FF9691838083FE01FF96808191815B
:101340000197F1F7FE01FF969183808382E00E946E
:10135000B80B8BE20E94B80B80E090E0A0E2B2E410
:101360008BAF9CAFADAFBEAF6BAD7CAD8DAD9EAD69
:101370002BEA3AEA4AEA50E40E941702DC01CB0168
:101380008FAB98AFA9AFBAAF6FA978AD89AD9AAD61
:1013900020E030E040E85FE30E941D0488231CF455
:1013A00081E08EAB91C06FA978AD89AD9AAD20E098
:1013B00030E04FE753E40E94BD0318160CF07BC0E9
:1013C0006BAD7CAD8DAD9EAD20E030E04AE754E4DE
:1013D0000E941103DC01CB018AAB9BABACABBDAB74
:1013E0006AA97BA98CA99DA920E030E04AE755E4D1
:1013F0000E941702DC01CB018EA79FA7A8ABB9AB57
:101400006EA57FA588A999A920E030E040E85FE3B8
:101410000E941D0488232CF481E090E09DA78CA7F6
:101420003FC06EA57FA588A999A920E03FEF4FE7AF
:1014300057E40E94BD0318164CF56AA97BA98CA934
:101440009DA920E030E040E251E40E941702DC0157
:10145000CB01BC01CD010E944100DC01CB019DA765
:101460008CA70FC080E991E09BA78AA78AA59BA5BE
:101470000197F1F79BA78AA78CA59DA501979DA72A
:101480008CA78CA59DA5009769F724C06EA57FA5A4
:1014900088A999A90E944100DC01CB019DA78CA7D6
:1014A0008CA59DA599A788A788A599A50197F1F76F
:1014B00099A788A70FC06FA978AD89AD9AAD0E9492
:1014C0004100DC01CB018EAB8EA98FA38FA18A9541
:1014D000F1F78FA380E00E94B80B8EE00E94B80B5A
:1014E00080E090E0A0E2B2E48BA39CA3ADA3BEA3F6
:1014F0006BA17CA18DA19EA12BEA3AEA4AEA50E4B5
:101500000E941702DC01CB018F8F98A3A9A3BAA375
:101510006F8D78A189A19AA120E030E040E85FE3D7
:101520000E941D0488231CF481E08E8F91C06F8D72
:1015300078A189A19AA120E030E04FE753E40E940E
:10154000BD0318160CF07BC06BA17CA18DA19EA1E0
:1015500020E030E04AE754E40E941103DC01CB01B3
:101560008A8F9B8FAC8FBD8F6A8D7B8D8C8D9D8D6F
:1015700020E030E04AE755E40E941702DC01CB018D
:101580008E8B9F8BA88FB98F6E897F89888D998D5F
:1015900020E030E040E85FE30E941D0488232CF443
:1015A00081E090E09D8B8C8B3FC06E897F89888D18
:1015B000998D20E03FEF4FE757E40E94BD031816D6
:1015C0004CF56A8D7B8D8C8D9D8D20E030E040E266
:1015D00051E40E941702DC01CB01BC01CD010E9445
:1015E0004100DC01CB019D8B8C8B0FC080E991E029
:1015F0009B8B8A8B8A899B890197F1F79B8B8A8BBE
:101600008C899D8901979D8B8C8B8C899D890097F6
:1016100069F724C06E897F89888D998D0E94410069
:10162000DC01CB019D8B8C8B8C899D89998B888B60
:10163000888999890197F1F7998B888B0FC06F8DF5
:1016400078A189A19AA10E944100DC01CB018E8F73
:101650008E8D8F878F858A95F1F78F8780E00E9426
:10166000B80B81E00E94B80B80E090E0A0E0B0E40D
:101670008B879C87AD87BE876B857C858D859E8596
:1016800020E030E04AE755E40E941702DC01CB017C
:101690008F839887A987BA876F81788589859A858E
:1016A00020E030E040E85FE30E941D0488232CF432
:1016B00081E090E09E838D833FC06F81788589852E
:1016C0009A8520E03FEF4FE757E40E94BD031816CC
:1016D0004CF56B857C858D859E8520E030E040E271
:1016E00051E40E941702DC01CB01BC01CD010E9434
:1016F0004100DC01CB019E838D830FC080E991E026
:101700009C838B838B819C810197F1F79C838B83D6
:101710008D819E8101979E838D838D819E8100970F
:1017200069F714C06F81788589859A850E94410088
:10173000DC01CB019E838D838D819E819A83898379
:1017400089819A810197F1F79A83898380E00E94C9
:10175000B80B86E00E94B80BC45BDF4F0FB6F8945D
:10176000DEBF0FBECDBFCF91DF911F910F910895C6
:10177000DF93CF93CDB7DEB76D970FB6F894DEBF8A
:101780000FBECDBF8D8F81E062E040E00E944E072A
:1017900081E061E040E00E944E07ABE3B0E0EBE3A4
:1017A000F0E08081982F9F708D8D807F892B8C93A6
:1017B00081E063E041E00E944E0780E090E0A0E01D
:1017C000B0E4898F9A8FAB8FBC8F698D7A8D8B8DAA
:1017D0009C8D20E030E04AE755E40E941702DC01CE
:1017E000CB018D8B9E8BAF8BB88F6D897E898F8956
:1017F000988D20E030E040E85FE30E941D048823DC
:101800002CF481E090E09C8B8B8B3FC06D897E89AE
:101810008F89988D20E03FEF4FE757E40E94BD038A
:1018200018164CF5698D7A8D8B8D9C8D20E030E0FB
:1018300040E251E40E941702DC01CB01BC01CD0162
:101840000E944100DC01CB019C8B8B8B0FC080E997
:1018500091E09A8B898B89899A890197F1F79A8B04
:10186000898B8B899C8901979C8B8B8B8B899C891D
:10187000009769F714C06D897E898F89988D0E94C1
:101880004100DC01CB019C8B8B8B8B899C89988BD5
:101890008F878F8598890197F1F7988B8F8781E0E3
:1018A00063E040E00E944E07ABE3B0E0EBE3F0E022
:1018B0008081282F2F708D8D882F90E082959295B2
:1018C000907F9827807F9827822B8C9381E063E01C
:1018D00041E00E944E0780E090E0A0E0B0E48B87FA
:1018E0009C87AD87BE876B857C858D859E8520E036
:1018F00030E04AE755E40E941702DC01CB018F83F8
:101900009887A987BA876F81788589859A8520E02D
:1019100030E040E85FE30E941D0488232CF481E05E
:1019200090E09E838D833FC06F81788589859A85FD
:1019300020E03FEF4FE757E40E94BD0318164CF537
:101940006B857C858D859E8520E030E040E251E40A
:101950000E941702DC01CB01BC01CD010E944100B5
:10196000DC01CB019E838D830FC080E991E09C83D5
:101970008B838B819C810197F1F79C838B838D8175
:101980009E8101979E838D838D819E81009769F74B
:1019900014C06F81788589859A850E944100DC0199
:1019A000CB019E838D838D819E819A8389838981DA
:1019B0009A810197F1F79A83898381E063E040E09F
:1019C0000E944E076D960FB6F894DEBF0FBECDBFD6
:1019D000CF91DF910895DF93CF93CDB7DEB76D97A9
:1019E0000FB6F894DEBF0FBECDBF8D8F81E061E0F2
:1019F00040E00E944E0781E061E041E00E944E0716
:101A0000ABE3B0E0EBE3F0E08081982F9F708D8D29
:101A1000807F892B8C9381E063E041E00E944E0738
:101A200080E090E0A0E0B0E4898F9A8FAB8FBC8F0C
:101A3000698D7A8D8B8D9C8D20E030E04AE755E4EE
:101A40000E941702DC01CB018D8B9E8BAF8BB88F70
:101A50006D897E898F89988D20E030E040E85FE3D2
:101A60000E941D0488232CF481E090E09C8B8B8BDA
:101A70003FC06D897E898F89988D20E03FEF4FE7C9
:101A800057E40E94BD0318164CF5698D7A8D8B8D35
:101A90009C8D20E030E040E251E40E941702DC011E
:101AA000CB01BC01CD010E944100DC01CB019C8B2C
:101AB0008B8B0FC080E991E09A8B898B89899A89F9
:101AC0000197F1F79A8B898B8B899C8901979C8B65
:101AD0008B8B8B899C89009769F714C06D897E89EF
:101AE0008F89988D0E944100DC01CB019C8B8B8BF0
:101AF0008B899C89988B8F878F8598890197F1F7BF
:101B0000988B8F8781E063E040E00E944E07ABE353
:101B1000B0E0EBE3F0E08081282F2F708D8D882FCF
:101B200090E082959295907F9827807F9827822BCE
:101B30008C9381E063E041E00E944E0780E090E0FA
:101B4000A0E0B0E48B879C87AD87BE876B857C85E2
:101B50008D859E8520E030E04AE755E40E9417021B
:101B6000DC01CB018F839887A987BA876F8178853D
:101B700089859A8520E030E040E85FE30E941D04FB
:101B800088232CF481E090E09E838D833FC06F8199
:101B9000788589859A8520E03FEF4FE757E40E94DA
:101BA000BD0318164CF56B857C858D859E8520E0E0
:101BB00030E040E251E40E941702DC01CB01BC019D
:101BC000CD010E944100DC01CB019E838D830FC0BB
:101BD00080E991E09C838B838B819C810197F1F755
:101BE0009C838B838D819E8101979E838D838D81C4
:101BF0009E81009769F714C06F81788589859A85E1
:101C00000E944100DC01CB019E838D838D819E81EA
:101C10009A83898389819A810197F1F79A838983CD
:101C200081E063E040E00E944E076D960FB6F894A5
:101C3000DEBF0FBECDBFCF91DF910895DF93CF936D
:101C400000D00F92CDB7DEB79B838A8319820FC075
:101C50008981282F30E08A819B81FC01E20FF31FEC
:101C6000908189818F5F8983892F0E94EB0C898104
:101C7000282F30E08A819B81FC01E20FF31F8081D5
:101C8000882331F70F900F900F90CF91DF91089537
:101C9000DF93CF93CDB7DEB780E00E94B80B81E031
:101CA0000E94B80BCF91DF910895DF93CF9300D0BE
:101CB0000F92CDB7DEB78A836B838A81813019F4A6
:101CC00080E8898305C08A81823011F480EC8983A1
:101CD00089819B81890F898389810E94B80B0F902C
:101CE0000F900F90CF91DF910895DF93CF93CDB7F1
:101CF000DEB7A4970FB6F894DEBF0FBECDBF9AA390
:101D000089A37CA36BA30E94C60881E088A31F8ED1
:101D100080E690E09E8F8D8F7FC088A16F8D0E949E
:101D2000550E8D8D9E8D0E941E0E80E090E0AAE7DC
:101D3000B3E4898F9A8FAB8FBC8F698D7A8D8B8D31
:101D40009C8D20E030E04AE755E40E941702DC0158
:101D5000CB018D8B9E8BAF8BB88F6D897E898F89E0
:101D6000988D20E030E040E85FE30E941D04882366
:101D70002CF481E090E09C8B8B8B3FC06D897E8939
:101D80008F89988D20E03FEF4FE757E40E94BD0315
:101D900018164CF5698D7A8D8B8D9C8D20E030E086
:101DA00040E251E40E941702DC01CB01BC01CD01ED
:101DB0000E944100DC01CB019C8B8B8B0FC080E922
:101DC00091E09A8B898B89899A890197F1F79A8B8F
:101DD000898B8B899C8901979C8B8B8B8B899C89A8
:101DE000009769F714C06D897E898F89988D0E944C
:101DF0004100DC01CB019C8B8B8B8B899C89988B60
:101E00008F878F8598890197F1F7988B8F870E942C
:101E1000480E8F8D8F5F8F8F88A1813021F48F8D39
:101E2000803108F47ACF82E088A31F8E7FC088A11A
:101E30006F8D0E94550E8D8D9E8D0E941E0E80E02E
:101E400090E0AAE7B3E48B879C87AD87BE876B855C
:101E50007C858D859E8520E030E04AE755E40E9430
:101E60001702DC01CB018F839887A987BA876F811E
:101E7000788589859A8520E030E040E85FE30E941C
:101E80001D0488232CF481E090E09E838D833FC065
:101E90006F81788589859A8520E03FEF4FE757E489
:101EA0000E94BD0318164CF56B857C858D859E853B
:101EB00020E030E040E251E40E941702DC01CB0157
:101EC000BC01CD010E944100DC01CB019E838D83CA
:101ED0000FC080E991E09C838B838B819C8101976B
:101EE000F1F79C838B838D819E8101979E838D83E7
:101EF0008D819E81009769F714C06F8178858985EF
:101F00009A850E944100DC01CB019E838D838D81E7
:101F10009E819A83898389819A810197F1F79A83B7
:101F200089830E94480E8F8D8F5F8F8F88A18230AA
:101F300021F48F8D803108F47ACF81E088A31F8E41
:101F40006BCF2F923F924F925F926F927F928F92C0
:101F50009F92AF92BF92CF92DF92EF92FF920F9338
:101F60001F93CF93DF93CDB7DEB7CA1BDB0B0FB642
:101F7000F894DEBF0FBECDBF09942A8839884888FF
:101F80005F846E847D848C849B84AA84B984C88495
:101F9000DF80EE80FD800C811B81AA81B981CE0F8C
:101FA000D11D0FB6F894DEBF0FBECDBFED01089571
:041FB000F894FFCFD3
:0E1FB40048656C6C6F0000000000000000002B
:00000001FF
